:100000000C9478000C948D000C948D000C948D0051
:100010000C948D000C948D000C948D000C948D002C
:100020000C948D000C948D000C948D000C948D001C
:100030000C948D000C948D000C948D000C948D000C
:100040000C948D000C948D000C948D000C948D00FC
:100050000C948D000C948D000C948D000C948D00EC
:100060000C948D000C948D000C948D000C948D00DC
:100070000C948D000C948D000C948D000C948D00CC
:100080000C948D000C948D000C948D000C948D00BC
:100090000C948D000C948D000C948D000C948D00AC
:1000A0000C948D000C948D000C948D000C948D009C
:1000B0000C948D00036EDB363D9A9999993DABAA5D
:1000C000AA2A3E000000803F072C7AA5BA6CC59092
:1000D000DA3B9365FC8BBC53F810FD3C5692834D84
:1000E000BD879D3AB63DCBC9BF5BBE73DA0FC93F32
:1000F00011241FBECFEFD8E0DEBFCDBF11E0A0E0DE
:10010000B1E0E2E5F0E102C005900D92A633B1073F
:10011000D9F70E940A020C9427080C940000CF9390
:10012000DF939B01AC01CCEBD0E018821092B900B8
:1001300060E074E284EF90E00E947002DA01C9018D
:100140004097A109B109B695A79597958795809392
:10015000B80084E08883DF91CF91089584EA80938A
:10016000BC008091BC0087FFFCCF089584E9809398
:10017000BC008091BC0084FDFCCF08958093BB003F
:1001800084E88093BC008091BC0087FFFCCF089579
:1001900084EC8093BC008091BC0087FFFCCF8091F1
:1001A000BB00089584E88093BC008091BC0087FF69
:1001B000FCCF8091BB0008958091B900887F08959D
:1001C0009C0140E050E060E472E48FE090E00E9427
:1001D0007002215031093093C5002093C40088E19A
:1001E0008093C10086E08093C20008959091C00082
:1001F00095FFFCCF8093C6000895CF93DF93EC0169
:100200008991882319F00E94F600FACFDF91CF91EF
:1002100008950E94AE0080ED0E94BE008BE60E9411
:10022000BE0080E00E94BE000C94B6008F929F92A8
:10023000AF92BF92CF92DF92EF92FF920F931F93F4
:10024000CF93DF9300D000D000D0CDB7DEB75C01F4
:100250006B017A010E94AE0080ED0E94BE008BE32C
:100260000E94BE000E94AE0081ED0E94BE008E0181
:100270000F5F1F4F4E0186E0880E911C0E94C80040
:10028000F80181938F01E815F905C1F70E94D200AA
:10029000182F0E94B60089819A819827892798276C
:1002A000F501918380838B819C81982789279827EA
:1002B000F601918380832D81812F90E0922BF701AD
:1002C0009183808326960FB6F894DEBF0FBECDBF14
:1002D000DF91CF911F910F91FF90EF90DF90CF9022
:1002E000BF90AF909F908F900895CF92DF92EF9242
:1002F000FF92BC01990F880B990B0E94570320E0D5
:1003000030E040E858E30E9467046B017C0120E084
:1003100030E040E85FE30E94620418168CF020E0B1
:1003200030E040E85FEBC701B6010E941A0387FF87
:100330000DC0C12CD12C90E8E92E9FEBF92E06C000
:10034000C12CD12C80E8E82E8FE3F82EC701B6012E
:100350000E94FF0226E437E245E652E40E94670469
:10036000FF90EF90DF90CF9008958F929F92AF9281
:10037000BF92CF92DF92EF92FF920F931F93CF9392
:10038000DF93EC01162F072F49015A01CA01B90169
:100390000E941F036B017C01072E000C880B990B38
:1003A0000E9457039B01AC01C501B4010E94920257
:1003B00020E030E048EC52E40E9467040E941F03F2
:1003C0009B0177FF04C022273327261B370B3F935F
:1003D0002F93DF92CF9280E091E09F938F930F93C2
:1003E0001F93DF93CF930E942F058DB79EB70A9678
:1003F0000FB6F8949EBF0FBE8DBFDF91CF911F91B6
:100400000F91FF90EF90DF90CF90BF90AF909F90B3
:100410008F900895CF93DF93CDB7DEB7CA55D1093A
:100420000FB6F894DEBF0FBECDBF60EA76E881E07C
:1004300090E00E948F0080E895E20E94E0000E9418
:10044000090188E091E00E94FD00E12CF12C8E0171
:100450000F5B1F4F8EE1A82E81E0B82E90E4992EFD
:10046000CE0101966C01AE014B5A5F4FBE01695A35
:100470007F4FCE01875A9F4F0E941601E114F1046D
:1004800021F46996EEACFFAC699769968EAD9FAD8D
:1004900069978E199F090E9475019B01AC0164E167
:1004A00070E0C8010E94B5011F930F93BF92AF92F5
:1004B0001F929F92DF92CF920E942F05C6010E9449
:1004C000FD009FEF24E38CE0915020408040E1F755
:1004D00000C000000FB6F894DEBF0FBECDBFC3CF83
:1004E000A1E21A2EAA1BBB1BFD010DC0AA1FBB1F38
:1004F000EE1FFF1FA217B307E407F50720F0A21BAA
:10050000B30BE40BF50B661F771F881F991F1A9416
:1005100069F760957095809590959B01AC01BD0140
:10052000CF0108955058BB27AA270E94AA020C9415
:1005300028040E941A0438F00E94210420F039F4A3
:100540009F3F19F426F40C94DC030EF4E095E7FBCE
:100550000C94D603E92F0E94390458F3BA176207A6
:1005600073078407950720F079F4A6F50C945B04D3
:100570000EF4E0950B2EBA2FA02D0B01B9019001BE
:100580000C01CA01A0011124FF27591B99F0593F02
:1005900050F4503E68F11A16F040A22F232F342F4A
:1005A0004427585FF3CF469537952795A795F04098
:1005B0005395C9F77EF41F16BA0B620B730B840BAD
:1005C000BAF09150A1F0FF0FBB1F661F771F881F65
:1005D000C2F70EC0BA0F621F731F841F48F48795BD
:1005E00077956795B795F7959E3F08F0B0CF9395AF
:1005F000880F08F09927EE0F9795879508959F9398
:100600009F77EEE389379E0728F4E4EBF0E00E9441
:1006100006040CC00E9492039058A2EA2AED3FE023
:1006200049EC5FE30E94AA020E9428040F9007FC95
:10063000905808950E94B20308F481E008950E9442
:1006400026036894B1110C945C0408950E9441043F
:1006500088F09F5798F0B92F9927B751B0F0E1F083
:10066000660F771F881F991F1AF0BA95C9F714C033
:10067000B13091F00E945B04B1E008950C945B04EA
:10068000672F782F8827B85F39F0B93FCCF386956C
:1006900077956795B395D9F73EF4909580957095C9
:1006A00061957F4F8F4F9F4F0895E89409C097FB46
:1006B0003EF490958095709561957F4F8F4F9F4F39
:1006C0009923A9F0F92F96E9BB279395F69587957D
:1006D00077956795B795F111F8CFFAF4BB0F11F440
:1006E00060FF1BC06F5F7F4F8F4F9F4F16C08823E7
:1006F00011F096E911C0772321F09EE8872F762F1D
:1007000005C0662371F096E8862F70E060E02AF05D
:100710009A95660F771F881FDAF7880F9695879549
:1007200097F90895DF93CF931F930F938B01EC01FB
:10073000E8ECF0E00E94DF030E9428049801AE017B
:100740008B01EC0160E070E080E89FE30E94920280
:100750000E94DA049801AE010F911F91CF91DF91B1
:100760000C947A04990F0008550FAA0BE0E8FEEFED
:1007700016161706E807F907C0F012161306E40765
:10078000F50798F0621B730B840B950B39F40A265E
:1007900061F0232B242B252B21F408950A2609F43C
:1007A000A140A6958FEF811D811D089597F99F6740
:1007B00080E870E060E008959FEF80EC0895DF939B
:1007C000CF931F930F93FF92EF92DF927B018C01E7
:1007D000689406C0DA2EEF010E947A04FE01E894C4
:1007E000A5912591359145915591A6F3EF010E9470
:1007F000AA02FE019701A801DA9469F7DF90EF9051
:10080000FF900F911F91CF91DF9108959F938F9348
:100810007F936F93FF93EF939B01AC010E9467045A
:10082000EF91FF910E94DF032F913F914F915F91D4
:100830000C94670400240A94161617061806090675
:10084000089500240A941216130614060506089546
:10085000092E0394000C11F4882352F0BB0F40F4CE
:10086000BF2B11F460FF04C06F5F7F4F8F4F9F4F0E
:10087000089557FD9058440F551F59F05F3F71F090
:100880004795880F97FB991F61F09F3F79F08795F7
:100890000895121613061406551FF2CF4695F1DF80
:1008A00008C0161617061806991FF1CF8695710510
:1008B000610508940895E894BB2766277727CB0144
:1008C00097F908950E94B20308F48FEF08950E94EB
:1008D0007A040C9428040E941A0438F00E9421041F
:1008E00020F0952311F00C94D6030C94DC03112412
:1008F0000C945C040E94390470F3959FC1F3950F2A
:1009000050E0551F629FF001729FBB27F00DB11D93
:10091000639FAA27F00DB11DAA1F649F6627B00D23
:10092000A11D661F829F2227B00DA11D621F739F0C
:10093000B00DA11D621F839FA00D611D221F749F1A
:100940003327A00D611D231F849F600D211D822F61
:10095000762F6A2F11249F5750409AF0F1F0882388
:100960004AF0EE0FFF1FBB1F661F771F881F9150B5
:100970005040A9F79E3F510580F00C94D6030C948B
:100980005C045F3FE4F3983ED4F3869577956795D2
:10099000B795F795E7959F5FC1F7FE2B880F911DDF
:1009A0009695879597F9089519F416F40C94DC033D
:1009B0000C941A050E944104B8F39923C9F3B6F3C5
:1009C0009F57550B87FF0E9428050024A0E640EAA8
:1009D000900180585695979528F4805C660F771F94
:1009E000881F20F026173707480730F4621B730B67
:1009F000840B202931294A2BA6951794079420258A
:100A000031254A2758F7660F771F881F20F02617D1
:100A10003707480730F4620B730B840B200D311D30
:100A2000411DA09581F7B901842F9158880F9695A3
:100A3000879508959F3F31F0915020F487957795E1
:100A40006795B795880F911D9695879597F90895A5
:100A500091505040660F771F881FD2F70895AEE07F
:100A6000B0E0E5E3F5E00C94FE070D891E898F895F
:100A7000988D26E02C831A83098397FF02C080E0BB
:100A800090E801979E838D83AE01455E5F4F698D2F
:100A90007A8DCE0101960E945F054D815E8157FDE2
:100AA0000AC02F813885421753070CF49A01F801C8
:100AB000E20FF31F10822E96E4E00C941A08ABE0CC
:100AC000B0E0E5E6F5E00C94F0076C017B018A01EB
:100AD000FC0117821682838181FFCCC1CE01019671
:100AE0003C01F6019381F70193FD859193FF81917C
:100AF0007F01882309F4BAC1853239F493FD8591C9
:100B000093FF81917F01853229F4B60190E00E9424
:100B10005607E7CF912C212C312CFFE1F315D8F0AB
:100B20008B3279F038F4803279F08332A1F4232DBE
:100B300020611DC08D3261F0803369F4232D216066
:100B400016C0832D8260382EE32DE4603E2E2AC02D
:100B5000F32DF8601DC037FC2DC020ED280F2A3082
:100B600040F08E32B9F436FC81C1232D2064322E40
:100B700019C036FE06C08AE0989E200D1124922EE0
:100B800011C0EAE02E9E200D1124222EF32DF062DA
:100B90003F2E08C08C3621F4832D8068382E02C089
:100BA000883641F4F70193FD859193FF81917F0190
:100BB0008111B3CF982F9F7D9554933028F40C5F0B
:100BC0001F4F9FE399830DC0833631F0833771F057
:100BD000833509F059C021C0F801808189830E5FF7
:100BE0001F4F88248394912C530113C02801F2E0F5
:100BF0004F0E511CF801A080B18036FE03C0692D54
:100C000070E002C06FEF7FEFC5010E944B074C01FF
:100C10008201F32DFF773F2E16C0280122E0420EFD
:100C2000511CF801A080B18036FE03C0692D70E030
:100C300002C06FEF7FEFC5010E9440074C01F32D0A
:100C4000F0683F2E820133FC1BC0822D90E0881695
:100C50009906B0F4B60180E290E00E9456072A940B
:100C6000F4CFF50137FC859137FE81915F01B60124
:100C700090E00E94560721102A9421E0821A9108E0
:100C80008114910471F7E8C0843611F0893641F57A
:100C9000F80137FE07C060817181828193810C5F0A
:100CA0001F4F08C060817181072E000C880B990BC3
:100CB0000E5F1F4FF32DFF763F2E97FF09C09095D3
:100CC0008095709561957F4F8F4F9F4FF0683F2EB5
:100CD0002AE030E0A3010E949207882E861845C0C2
:100CE000853731F4232D2F7EB22E2AE030E025C047
:100CF000932D997FB92E8F36C1F018F4883579F08D
:100D0000B5C0803719F0883721F0B0C0E92FE06115
:100D1000BE2EB4FE0DC0FB2DF460BF2E09C034FE04
:100D20000AC0292F2660B22E06C028E030E005C098
:100D300020E130E002C020E132E0F801B7FE07C058
:100D400060817181828193810C5F1F4F06C0608139
:100D5000718180E090E00E5F1F4FA3010E94920717
:100D6000882E8618FB2DFF773F2E36FE0DC0232DD3
:100D70002E7FA22E891458F434FE0BC032FC09C019
:100D8000832D8E7EA82E05C0B82CA32C03C0B82CB2
:100D900001C0B92CA4FE0FC0FE01E80DF11D808139
:100DA000803321F49A2D997EA92E09C0A2FE06C097
:100DB000B394B39404C08A2D867809F0B394A3FC4D
:100DC00011C0A0FE06C0B21488F4280C922C9B1807
:100DD0000EC0B21460F4B60180E290E00E945607A3
:100DE000B394F7CFB21418F42B1802C0982C212C0E
:100DF000A4FE10C0B60180E390E00E945607A2FE58
:100E000017C0A1FC03C088E790E002C088E590E02D
:100E1000B6010CC08A2D867859F0A1FE02C08BE283
:100E200001C080E2A7FC8DE2B60190E00E94560767
:100E3000891438F4B60180E390E00E9456079A9432
:100E4000F7CF8A94F301E80DF11D8081B60190E09F
:100E50000E9456078110F5CF222009F442CEB60138
:100E600080E290E00E9456072A94F6CFF601868130
:100E7000978102C08FEF9FEF2B96E2E10C940C0854
:100E8000FC010590615070400110D8F78095909555
:100E90008E0F9F1F0895FC0161507040019001105A
:100EA000D8F7809590958E0F9F1F08950F931F93ED
:100EB000CF93DF93FB01238121FD03C08FEF9FEFD1
:100EC0002CC022FF16C046815781248135814217EC
:100ED000530744F4A081B1819D012F5F3F4F3183BF
:100EE00020838C93268137812F5F3F4F3783268362
:100EF00014C08B01EC01FB010084F185E02D099504
:100F0000892BE1F6D80116968D919C911797019641
:100F100017969C938E931697CE01DF91CF911F91D8
:100F20000F910895FA01AA27283051F1203181F15B
:100F3000E8946F936E7F6E5F7F4F8F4F9F4FAF4FE1
:100F4000B1E03ED0B4E03CD0670F781F891F9A1FF4
:100F5000A11D680F791F8A1F911DA11D6A0F711DA8
:100F6000811D911DA11D20D009F468943F912AE0B4
:100F7000269F11243019305D3193DEF6CF0108959C
:100F8000462F4770405D4193B3E00FD0C9F7F6CFCD
:100F9000462F4F70405D4A3318F0495D31FD405295
:100FA000419302D0A9F7EACFB4E0A695979587952B
:100FB00077956795BA95C9F700976105710508950A
:100FC0009B01AC010A2E06945795479537952795B6
:100FD000BA95C9F7620F731F841F951FA01D08954E
:100FE0002F923F924F925F926F927F928F929F9239
:100FF000AF92BF92CF92DF92EF92FF920F931F9327
:10100000CF93DF93CDB7DEB7CA1BDB0B0FB6F894D7
:10101000DEBF0FBECDBF09942A88398848885F8417
:101020006E847D848C849B84AA84B984C884DF8088
:10103000EE80FD800C811B81AA81B981CE0FD11D6C
:101040000FB6F894DEBF0FBECDBFED010895F89442
:02105000FFCFD0
:1010520025642E25303264004D505536303530200F
:10106200496E697469616C697A65640D0A001B5B7B
:10107200324B0D416E676C653A20257320646567BB
:06108200726565730000B9
:00000001FF
